:100000000C94AF000C941D020C94CC000C94CC000A
:100010000C94CC000C94CC000C94CC000C94CC0030
:100020000C94CC000C94CC000C94CC000C94CC0020
:100030000C94CC000C94CC000C94CC000C94CC0010
:100040000C94CC000C94CC000C94A0060C94CC0026
:100050000C94E6060C94CC000C94CC000C94CC00D0
:100060000C94FC030C94CC00084AD73B3BCE016EA9
:1000700084BCBFFDC12F3D6C74319ABD56833DDAFF
:100080003D00C77F11BED9E4BB4C3E916BAAAABE0E
:10009000000000803F040309041203640053006160
:1000A000006E006300680065007A0014034E00557E
:1000B000004E004300480055004B0058003200122B
:1000C00001100100000008C016DF05000101020058
:1000D000010902220001010080320904000001032D
:1000E00000000009210101000122590007058103D8
:1000F00008000F3031323334353637383941424316
:100100004445460005010905A10105010901A100B9
:100110000930093109320933093409350937150025
:1001200026FF00750895078102C0050209BB15006E
:1001300026FF007508950181020939150025033550
:1001400000460E016514750495018102050915002C
:10015000250119002904750195048102C0001124AC
:100160001FBECFEFD4E0DEBFCDBF12E0A0E0B1E014
:10017000EEE6FBE302C005900D92A231B107D9F77C
:1001800013E0A2E1B2E001C01D92AD3AB107E1F780
:100190000E9436130C94B51D0C940000E9E6F0E0C3
:1001A000808182608083E89A8BE4809354038AE59F
:1001B0008093530308951F93CF93DF93909164032B
:1001C000935097FDA2C020916103809160038D320E
:1001D00009F099C0983009F096C0CCE0D0E0C21B7D
:1001E000D109C859DC4F83EC809348038AE580939A
:1001F0000001109212028881807629F0CE010E94BF
:100200007A09282F77C09A81109251038981882317
:1002100021F41092520322E067C0853019F49093C4
:10022000650361C0863009F04AC08B81813019F4C2
:100230008FEB90E01BC0823041F481ED90E0909311
:1002400063038093620322E236C08330F9F48A812B
:10025000882341F485E990E09093630380936203DF
:1002600024E029C0813041F489E990E09093630350
:100270008093620322E11FC08230E1F48BEA90E0B8
:10028000909363038093620324E115C0813241F4AB
:1002900083EE90E0909363038093620329E00BC0A8
:1002A000823241F484E091E090936303809362038F
:1002B00029E501C020E080E4809312021BC0883051
:1002C00021F421E087E693E011C0893019F490937E
:1002D000670309C08A3011F421E006C08B3019F49D
:1002E0008BE48093540320E081E593E090936303D3
:1002F000809362038F81882321F48E81821708F412
:10030000282F20930101109264038091000184FF43
:100310004AC0809101018F3F09F445C0182F8930F0
:1003200008F018E0811B809301018091480398E850
:10033000892780934803112341F120916203309172
:1003400063038091120286FF0DC0A9E4B3E080E050
:1003500090E0F901E80FF91FE491ED930196181769
:10036000C1F708C0912FD901E9E4F3E08D918193A1
:100370009150E1F71150812F90E01F5F0196820F9D
:10038000931F909363038093620389E493E0612F4A
:100390000E941902612F6C5F6C3019F08FEF80930F
:1003A00001016093000194E189B1847131F49150AD
:1003B000D9F71092650310925F03DF91CF911F91DF
:1003C00008951F93DC01162F8091530384FF07C00B
:1003D0008091540398E889278093540303C08AE5E9
:1003E00080935303912FE5E5F3E08D918193915034
:1003F0001916DCF385E593E0612F0E9419021C5F5A
:10040000109353031F910895A82FB92F80E090E017
:1004100041E050EA60956F5F58F42D9138EF8227E4
:100420009795879510F0842795273F5FC8F3F3CF02
:100430000895EADF8D939D930895CF93CFB7CF931F
:10044000DF93C3954C9BE9F74C9B0BC04C9B09C0B9
:100450004C9B07C04C9B05C04C9B03C04C9B01C0F0
:100460008BC06F93C0916103DD27C859DC4F2F9378
:1004700065E54C9B03C02F916F91E6CF0F931F93BF
:100480004F9320E040E15F9309B1047104FB27F929
:100490003F9350E03BE039C0147140642F77012F47
:1004A00053501EC0406819B114712F7753501FC0AC
:1004B000406409B12F770471D1F15350000023C07B
:1004C000406219B12F77147191F15350000025C08B
:1004D00004711027515012F45D5F000011502795F0
:1004E0002C3F19B1C8F614710127015027952C3FF4
:1004F000C8F64227499309B1047110274F73115070
:1005000027952C3FA8F64695469519B1147179F0B8
:100510000127015027952C3F98F66B5A60F3315014
:1005200009B1B0F600C011E01CBB002719C03B5058
:100530003195C31BD04011E01CBB0881033C09F17D
:100540000B34F9F020915F031981110F1213EDCFD5
:100550004A81441F093651F10D3211F0013E29F74D
:10056000009366033F915F914F911F910F912F91DF
:100570006F91CCB3C0FD65CFDF91CF91CFBFCF914D
:10058000189520916603222369F3109164031123C7
:1005900091F5343092F1309364032093600310910D
:1005A00061033BE0311B3093610327C0009164037A
:1005B00001300CF50AE54F7049F43091000134FD2B
:1005C0001DC000930001C8E4D3E01CC03091530368
:1005D00034FD14C000935303C4E5D3E013C00527D2
:1005E00010E000C000000BB91AC0052710E0221F60
:1005F0001DC010E021C04AE502C032ED432FC4E126
:10060000D0E032E01AB114615C9A0BB11AB954E12E
:1006100020E865E320FF05270BB9279517951C3FB8
:10062000F0F66695B8F7B1F720FF05270BB92795C7
:1006300017951C3FD0F62795179517FF0527000043
:100640001C3F0BB9B0F629913A9519F70B7E109122
:100650006503110FC651D0400BB911F010935F0321
:1006600011E01CBB00611AB11B7E402F4B7E54E091
:100670005A95F1F70BB91AB94BB974CF880F80931B
:10068000BA000895982F413210F040E02FC08091B9
:1006900013028823E1F781E0809313028FEF8093A8
:1006A000240210921B0240931C02990F91609093B8
:1006B000140285EE8093BC00809113028130E1F337
:1006C00080911B02841710F440911B02A091190223
:1006D000B0911A0220E030E007C0FB01E20FF31FE7
:1006E0008D9180832F5F3F4F2417B8F3842F089597
:1006F0001F93582F122F413210F081E03CC080919F
:1007000013028823E1F782E0809313028FEF809336
:10071000240210921B0240931C02A0911902B09176
:100720001A02FB0102C081918D938E2F861B8417C4
:10073000D0F3852F90E0880F991F8093140285EEE7
:100740008093BC00112321F0809113028230E1F3E9
:10075000809124028F3F11F480E00DC0809124022B
:10076000803211F482E007C080912402803311F0BE
:1007700084E001C083E01F910895482F613210F09A
:1007800081E0089580911302843011F082E0089591
:1007900060932002A0911D02B0911E02842F9C0143
:1007A000F90102C081918D938E2F841B8617D0F39F
:1007B00080E0089590931802809317020895909313
:1007C0001602809315020895882311F085EC01C06C
:1007D00085E88093BC00089585ED8093BC008091EE
:1007E000BC0084FDFCCF10921302089585EC809329
:1007F000BC001092130208951F920F920FB60F9231
:1008000011242F933F934F935F936F937F938F9315
:100810009F93AF93BF93EF93FF938091B90090E0C4
:10082000887F90708036910509F4E2C08136910589
:10083000CCF58832910509F47BC089329105B4F476
:100840008031910509F46FC0813191053CF4009726
:1008500009F438C1089709F040C165C08831910595
:1008600009F466C0809709F038C17FC080349105D3
:1008700009F4A3C08134910544F48033910509F44F
:100880007FC0C89709F029C186C08035910509F459
:1008900086C08835910509F495C08834910509F022
:1008A0001CC19EC08839910509F404C1893991059C
:1008B000ECF48837910509F49BC0893791054CF415
:1008C0008836910509F494C08037910509F005C177
:1008D0008FC08838910509F4EDC08039910509F47D
:1008E0008DC08038910509F0F8C088C0803B910523
:1008F00009F4B2C0813B91054CF4803A910509F4AA
:1009000091C0883A910509F0E8C0A6C0803C9105E5
:1009100009F4D4C0883C910509F4D0C0883B910506
:1009200009F0DBC0B1C0809114028093BB00C0C04D
:1009300090911B0280911C02981778F490911B02F1
:10094000E0911902F0911A02E90FF11D8081809364
:10095000BB009F5F90931B02ABC085ED8093BC00F2
:100960008091BC0084FDFCCFB6C080E2809324025D
:1009700085ED8093BC008091BC0084FDFCCFABC0B2
:1009800080E38093240285ED8093BC008091BC00BD
:1009900084FDFCCFA0C088E3809324028FC08091A7
:1009A0001B029091BB00E0911902F0911A02E80F2E
:1009B000F11D90838F5F80931B0290911B028091A9
:1009C0001C0274C080911B029091BB00E09119023F
:1009D000F0911A02E80FF11D90838F5F80931B0244
:1009E00085ED8093BC008091BC0084FDFCCF73C07A
:1009F00083E080931302109223025AC08091230255
:100A0000803208F057C0809123029091BB00E091A2
:100A10002102F0912202E80FF11D90838F5F8093F5
:100A2000230246C080912302803248F48091230241
:100A3000E0912102F0912202E80FF11D10826091F5
:100A40002302E0911702F091180280912102909107
:100A5000220270E0099532C084E080931302109264
:100A60001F0210922002E0911502F09116020995E2
:100A700080912002882341F481E080932002E0915C
:100A80001D02F0911E02108290911F02E0911D0242
:100A9000F0911E02E90FF11D80818093BB009F5FE2
:100AA00090931F0290911F0280912002981710F4DA
:100AB00085EC01C085E88093BC000FC085EC809375
:100AC000BC0009C01092240285ED8093BC00809187
:100AD000BC0084FDFCCF10921302FF91EF91BF91F7
:100AE000AF919F918F917F916F915F914F913F91C6
:100AF0002F910F900FBE0F901F9018951092130218
:100B0000449A459AE9EBF0E080818E7F8083808172
:100B10008D7F808380E28093B80085E48093BC0061
:100B200080E290E061E070E00E942B1A809319024D
:100B300090931A0280E290E061E070E00E942B1A2C
:100B400080931D0290931E0280E290E061E070E0CD
:100B50000E942B1A80932102909322020895FC0197
:100B60008FB7F89471836083538342831782168210
:100B7000158214828FBF0895DC014FB7F894149644
:100B80008D919C911597892B11F4E0E025C0169664
:100B90008D919C911797ED91FC911197E80FF91F9A
:100BA000E081019617969C938E93169712962D913D
:100BB0003C9113978217930730F0821B930B179683
:100BC0009C938E93169714968D919C9115970197EF
:100BD00015969C938E9314974FBF8E2F0895FC010A
:100BE0004FB7F8948481958168177907B0F48681AE
:100BF0009781860F971F978386832281338182177F
:100C0000930720F0821B930B9783868384819581C1
:100C1000861B970B9583848302C0158214824FBF75
:100C20000895FC01CB012FB7F8942FBF268137819F
:100C300062817381820F931F0E94BE190190F0811F
:100C4000E02DE80FF91F808108951F93CF93DF9364
:100C5000EC01162F4FB7F8942C813D816A817B817E
:100C60002617370798F48E819F81820F931F0E9469
:100C7000BE19E881F981E80FF91F10838C819D81ED
:100C800001969D838C834FBF8FEF02C04FBF80E0E2
:100C9000DF91CF911F910895FC018FB7F8948FBF1A
:100CA0002281338184819581281B390BC9010895E4
:100CB000FC018FB7F894158214828FBF089590932A
:100CC000A6028093A50208959B01AC0160587B4762
:100CD000814E9F4FF3E0660F771F881F991FFA958B
:100CE000D1F7E4E0220F331F441F551FEA95D1F7D7
:100CF0000E94D219215030402093C4003093C50087
:100D000008958FE793E0089588E893E00895982F79
:100D100080917E038823E1F39093C60010927E03B6
:100D200008951092840310928303089580918303A1
:100D300090918403892B11F080E008958FEF08953E
:100D40001F920F920FB60F9211242F933F934F9340
:100D50005F936F937F938F939F93AF93BF93EF9323
:100D6000FF936091C6008091A5029091A602892B05
:100D700039F0E091A502F091A602862F09950FC0E7
:100D80008FE793E00E942506882349F48091900321
:100D90009091910301969093910380939003FF911A
:100DA000EF91BF91AF919F918F917F916F915F91E3
:100DB0004F913F912F910F900FBE0F901F9018955C
:100DC000682F88E893E00E94250608951F920F92ED
:100DD0000FB60F9211242F933F934F935F936F930E
:100DE0007F938F939F93AF93BF93EF93FF938091E4
:100DF0008703882379F080918C0390918D03892B50
:100E000039F088E893E00E94BC058093C60005C0D5
:100E1000109287038FEF80937E03FF91EF91BF9134
:100E2000AF919F918F917F916F915F914F913F9182
:100E30002F910F900FBE0F901F9018958FEF8093FA
:100E4000870388E893E00E94BC05982F80917E0379
:100E50008823E1F39093C60010927E030895CF9308
:100E6000DF93EC018091810390918203892B69F0DB
:100E70008091830390918403892B39F08FE793E06D
:100E80000E94BC0588838FEF01C080E0DF91CF9185
:100E90000895DF93CF930F92CDB7DEB7CE010196C1
:100EA0000E942F07882319F42FEF3FEF03C0898199
:100EB000282F30E0C9010F90CF91DF9108958FE77F
:100EC00093E065E272E040E450E00E94AF0588E8FC
:100ED00093E065E672E040E450E00E94AF050895BB
:100EE0000E945F071092A6021092A50288ED8093DF
:100EF000C10060E875E280E090E00E9464068FEF38
:100F000080937E03109287031092910310929003B6
:100F1000789408959093A8028093A70208951F9350
:100F2000182F8A3031F4E091A702F091A8028DE0E9
:100F30000995E091A702F091A802812F09951F91D0
:100F40000895CF93DF93EC01009721F406C021961A
:100F50000E948F0788818823D1F7DF91CF91089570
:100F6000EF92FF920F931F93CF93DF938C017A013F
:100F70000097E9F020E030E02617370738F4F80151
:100F800081918F012F5F3F4F8823B1F7C0E0D0E000
:100F90000BC0F8018081882319F00F5F1F4F01C03B
:100FA00080E20E948F072196CE15DF0590F3DF9136
:100FB000CF911F910F91FF90EF900895CF93DF9302
:100FC000EC01009719F407C00E948F07FE012196DB
:100FD00084918823C9F7DF91CF9108958AE00E9418
:100FE0008F070895E82FF0E0EF70F070ED50FF4F9D
:100FF000E4918E2F0E948F0708951F93182F8295DA
:101000008F700E94F207812F0E94F2071F910895AE
:101010001F93182F892F0E94FD07812F0E94FD0723
:101020001F910895EF92FF920F931F937B018C0104
:10103000C801AA27BB270E940808C7010E94080808
:101040001F910F91FF90EF9008952F923F924F9232
:101050005F926F927F928F929F92AF92BF92CF9248
:10106000DF92EF92FF920F931F93DF93CF93CDB751
:10107000DEB7A3970FB6F894DEBF0FBECDBF4AA36D
:101080002BA337014801442351F017FF08C0EE2479
:10109000FF248701E618F7080809190902C084012E
:1010A0007301262E262F215090E03AA1311191E0B4
:1010B000291B29A318A2A82EBB24A7FCB094CB2CD3
:1010C000DB2CC801B701A60195010E94D219FB01D2
:1010D000EF70F070ED50FF4F64916F8FC801B70152
:1010E000A60195010E94D219C901DA017C018D0186
:1010F0009EE1492E512C4C0E5D1E39A025C0E114F5
:10110000F10401051105C9F0C801B701A601950157
:101110000E94D219FB01EF70F070ED50FF4F649107
:10112000F2016083C801B701A60195010E94D2199E
:10113000C901DA017C018D0103C02BA1F2012083DA
:101140003A940894410851083320C9F6CE014F96CD
:101150008C0139A1031B11098AA18823E1F097FEB4
:1011600005C08DE2F80182938F0115C0C801019777
:10117000611471048104910419F08C018BE202C0A6
:101180008C0180E2F801808306C0F80181918F0113
:101190000E948F072A942220C1F7A3960FB6F894D5
:1011A000DEBF0FBECDBFCF91DF911F910F91FF909A
:1011B000EF90DF90CF90BF90AF909F908F907F90F7
:1011C0006F905F904F903F902F9008957F928F92F5
:1011D0009F92AF92BF92CF92DF92EF92FF920F93C6
:1011E0001F93DF93CF93CDB7DEB77888C988DA88AD
:1011F00053E1E52EF12CEC0EFD1E14C0882381F482
:1012000080E090E0CF91DF911F910F91FF90EF90E0
:10121000DF90CF90BF90AF909F908F907F90089578
:101220000E948F0796012F5F3F4F772021F0F60134
:101230006901849103C0F601808169018532F1F66C
:101240002F5F3F4F772021F0F6016901849103C0A1
:10125000F60180816901843629F0883781F0833670
:10126000F9F606C000E117E24AE0A42EB12C0CC04A
:10127000F701808122E030E0E20EF31ED1CF00E0E2
:1012800010E130E1A32EB12C22E0822E912C8E0CA5
:101290009F1CF701E080F1808436B1F4F7FE11C0A5
:1012A000F094E194F108F3948DE20E948F0709C055
:1012B000C8016AE070E00E94BE198B0162307105BE
:1012C00018F0E016F106A0F3C701B8010E94BE199C
:1012D000862F0E94F207C701B8010E94BE197C0147
:1012E000C801B5010E94BE198B016115710561F736
:1012F000740198CFFC0180818076803271F5818104
:101300008130D1F410923D0310923E0310923F03BE
:101310001092400310924103109242031092430333
:1013200010924403109245038DE393E0909363037E
:101330008093620389E00895823041F487E493E06A
:10134000909363038093620381E008958A3029F4C7
:1013500083818093470380E0089580E0089520EA28
:101360003FE004C0F9013197F1F701970097D1F7F9
:101370000895009719F0019721F402C05F9808952D
:101380005F9A08952F923F924F925F926F927F9251
:101390008F929F92AF92BF92CF92DF92EF92FF9285
:1013A0000F931F93DF93CF93CDB7DEB7EC970FB6B4
:1013B000F894DEBF0FBECDBF69AB7AAB8BAB9CABF5
:1013C0002DAB3EAB4FAB58AF6093D1027093D202BE
:1013D0008093D3029093D4022093DD023093DE02F7
:1013E0004093DF025093E002E092E902F092EA02B9
:1013F0000093EB021093EC02A0921903B0921A032F
:10140000C0921B03D0921C0365962CAD3DAD4EAD32
:101410005FAD659720932503309326034093270300
:101420005093280369968CAD9DADAEADBFAD699765
:101430008093310390933203A0933303B09334032A
:101440002091D5023091D6024091D7025091D80216
:101450002DA73EA74FA758AB8091B1029091B20241
:10146000A091B302B091B40289A79AA7ABA7BCA779
:1014700069A97AA98BA99CA92DEE3DE84DEB5EE305
:101480000E94BD153B014C016DA57EA58FA598A9B5
:101490002CE33DEB4CE75EE30E94BD159B01AC01E4
:1014A000C401B3010E9490153B014C016091D90227
:1014B0007091DA028091DB029091DC022DEE3DE822
:1014C0004DEB5EE30E94BD159B01AC01C401B3016D
:1014D0000E9490153B014C0169A57AA58BA59CA59E
:1014E00026E630EE42E95EEB0E94BD159B01AC01A1
:1014F000C401B3010E945F153B014C016091B5022C
:101500007091B6028091B7029091B8022FED3AE542
:101510004CE85EE30E94BD159B01AC01C401B30120
:101520000E945F1569AF7AAF8BAF9CAF29AD3AAD22
:101530004BAD5CADC901DA018093AD029093AE0270
:10154000A093AF02B093B0022091E1023091E20289
:101550004091E3025091E4022DA33EA34FA358A76C
:101560008091BD029091BE02A091BF02B091C002D5
:1015700089A39AA3ABA3BCA36DA97EA98FA998AD9B
:101580002DEE3DE84DEB5EE30E94BD153B014C01A5
:101590006DA17EA18FA198A52CE33DEB4CE75EE306
:1015A0000E94BD159B01AC01C401B3010E949015BE
:1015B0003B014C016091E5027091E6028091E702E7
:1015C0009091E8022DEE3DE84DEB5EE30E94BD15E3
:1015D0009B01AC01C401B3010E9490153B014C0179
:1015E00069A17AA18BA19CA126E630EE42E95EEBCF
:1015F0000E94BD159B01AC01C401B3010E945F159F
:101600003B014C016091C1027091C2028091C30202
:101610009091C4022FED3AE54CE85EE30E94BD15BF
:101620009B01AC01C401B3010E945F151B012C0199
:10163000CB01D2018093B9029093BA02A093BB026E
:10164000B093BC022091ED023091EE024091EF0286
:101650005091F0022D8F3E8F4F8F58A38091C90279
:101660009091CA02A091CB02B091CC02898F9A8F3F
:10167000AB8FBC8FC801B7012DEE3DE84DEB5EE3AB
:101680000E94BD153B014C016D8D7E8D8F8D98A103
:101690002CE33DEB4CE75EE30E94BD159B01AC01E2
:1016A000C401B3010E9490153B014C016091F1020D
:1016B0007091F2028091F3029091F4022DEE3DE8D8
:1016C0004DEB5EE30E94BD159B01AC01C401B3016B
:1016D0000E9490153B014C01698D7A8D8B8D9C8DFC
:1016E00026E630EE42E95EEB0E94BD159B01AC019F
:1016F000C401B3010E945F153B014C016091CD0212
:101700007091CE028091CF029091D0022FED3AE5F8
:101710004CE85EE30E94BD159B01AC01C401B3011E
:101720000E945F159B01AC012093C5023093C60255
:101730004093C7025093C8022DA53EA54FA558A9B6
:101740002093D9023093DA024093DB025093DC02FB
:1017500029A93AA94BA95CA92093D5023093D602B6
:101760004093D7025093D8022DA13EA14FA158A576
:101770002093E5023093E6024093E7025093E8029B
:101780002DA93EA94FA958AD2093E1023093E20262
:101790004093E3025093E4022D8D3E8D4F8D58A16E
:1017A0002093F1023093F2024093F3025093F4023B
:1017B000E092ED02F092EE020093EF021093F0023D
:1017C00029A53AA54BA55CA52093B5023093B60296
:1017D0004093B7025093B802E9ADFAADABADBCADE2
:1017E0009F01AD012093B1023093B2024093B30246
:1017F0005093B40229A13AA14BA15CA12093C1024C
:101800003093C2024093C3025093C4029101A201DB
:101810002093BD023093BE024093BF025093C0029A
:10182000298D3A8D4B8D5C8D2093CD023093CE0265
:101830004093CF025093D002AC01CB01DA018093E8
:10184000C9029093CA02A093CB02B093CC028091BC
:101850001D0390911E03A0911F03B09120038D8B57
:101860009E8BAF8BB88F2091F9023091FA02409194
:10187000FB025091FC02298B3A8B4B8B5C8BC6018F
:10188000B5012DEE3DE84DEB5EE30E94BD157B01F9
:101890008C016D897E898F89988D2CE33DEB4CE717
:1018A0005EE30E94BD159B01AC01C801B7010E9417
:1018B00090157B018C01609121037091220380912E
:1018C0002303909124032DEE3DE84DEB5EE30E944F
:1018D000BD159B01AC01C801B7010E9490157B01A9
:1018E0008C0169897A898B899C8926E630EE42E9E8
:1018F0005EEB0E94BD159B01AC01C801B7010E94BF
:101900005F157B018C016091FD027091FE02809158
:10191000FF02909100032FED3AE54CE85EE30E9450
:10192000BD159B01AC01C801B7010E945F151B01E9
:101930002C01CB01D2018093F5029093F602A09383
:10194000F702B093F8028091290390912A03A091A5
:101950002B03B0912C038D879E87AF87B88B209186
:10196000050330910603409107035091080329872E
:101970003A874B875C8765966CAD7DAD8EAD9FAD2C
:1019800065972DEE3DE84DEB5EE30E94BD157B01B2
:101990008C016D857E858F8598892CE33DEB4CE726
:1019A0005EE30E94BD159B01AC01C801B7010E9416
:1019B00090157B018C0160912D0370912E03809115
:1019C0002F03909130032DEE3DE84DEB5EE30E9436
:1019D000BD159B01AC01C801B7010E9490157B01A8
:1019E0008C0169857A858B859C8526E630EE42E9F7
:1019F0005EEB0E94BD159B01AC01C801B7010E94BE
:101A00005F157B018C016091090370910A0380913D
:101A10000B0390910C032FED3AE54CE85EE30E9436
:101A2000BD159B01AC01C801B7010E945F153B01C8
:101A30004C01CB01D4018093010390930203A09346
:101A40000303B09304038091350390913603A09172
:101A50003703B09138038D839E83AF83B88720917D
:101A60001103309112034091130350911403298301
:101A70003A834B835C8369966CAD7DAD8EAD9FAD33
:101A800069972DEE3DE84DEB5EE30E94BD157B01AD
:101A90008C016D817E818F8198852CE33DEB4CE735
:101AA0005EE30E94BD159B01AC01C801B7010E9415
:101AB00090157B018C016091390370913A038091FC
:101AC0003B0390913C032DEE3DE84DEB5EE30E941D
:101AD000BD159B01AC01C801B7010E9490157B01A7
:101AE0008C0169817A818B819C8126E630EE42E906
:101AF0005EEB0E94BD159B01AC01C801B7010E94BD
:101B00005F157B018C016091150370911603809124
:101B10001703909118032FED3AE54CE85EE30E941D
:101B2000BD159B01AC01C801B7010E945F159B0167
:101B3000AC0120930D0330930E0340930F03509399
:101B400010032D893E894F89588D209321033093AE
:101B500022034093230350932403A0921D03B092C9
:101B60001E03C0921F03D09220032D853E854F8512
:101B7000588920932D0330932E0340932F035093C5
:101B8000300365962CAD3DAD4EAD5FAD65972093AE
:101B9000290330932A0340932B0350932C032D8168
:101BA0003E814F8158852093390330933A03409307
:101BB0003B0350933C0369962CAD3DAD4EAD5FADFC
:101BC000699720933503309336034093370350933E
:101BD000380329893A894B895C892093FD02309327
:101BE000FE024093FF02509300039101A201209353
:101BF000F9023093FA024093FB025093FC022985CC
:101C00003A854B855C852093090330930A03409302
:101C10000B0350930C039301A4012093050330930D
:101C20000603409307035093080329813A814B81AF
:101C30005C81209315033093160340931703509350
:101C40001803AC01CB01DA018093110390931203C6
:101C5000A0931303B0931403EC960FB6F894DEBF71
:101C60000FBECDBFCF91DF911F910F91FF90EF90ED
:101C7000DF90CF90BF90AF909F908F907F906F90AC
:101C80005F904F903F902F900895AC01009731F0F6
:101C90008130910551F020E030E00FC08091A20327
:101CA000282F30E02095309506C08091A803282F7A
:101CB00030E02427352721703070C901089500973E
:101CC00029F0019741F020E030E00DC020E030E045
:101CD0008091A20304C020E030E08091A80381FD40
:101CE00002C021E030E0C90108952F923F924F9247
:101CF0005F926F927F928F929F92AF92BF92CF929C
:101D0000DF92EF92FF920F931F93DF93CF93CDB7A4
:101D1000DEB76A970FB6F894DEBF0FBECDBF6091F5
:101D20009F0370E0660F771F660F771F882777FD88
:101D30008095982F0E9417171B012C016091A0031A
:101D400070E0660F771F660F771F882777FD8095F5
:101D5000982F0E9417173B014C016091A10370E07E
:101D6000660F771F660F771F882777FD8095982F5E
:101D70000E9417177B018C016091A50370E0660F2C
:101D8000771F660F771F882777FD8095982F0E9411
:101D900017175B016C016091A60370E0660F771F57
:101DA000660F771F882777FD8095982F0E94171759
:101DB0006D877E878F87988B6091A70370E0660F91
:101DC000771F660F771F882777FD8095982F0E94D1
:101DD0001717698B7A8B8B8B9C8B8DB79EB7089767
:101DE0000FB6F8949EBF0FBE8DBFADB7BEB71196AC
:101DF000BA8FA98FC201B10120E030E04FEF53E468
:101E00000E945F151B012C01C401B30120E030E0EA
:101E10004FEF53E40E945F153B014C01C801B7012D
:101E200020E030E04FEF53E40E945F157B018C010E
:101E3000C601B50120E030E04FEF53E40E945F158A
:101E40005B016C016D857E858F85988920E030E08F
:101E50004FEF53E40E945F15E98DFA8D6083718323
:101E60008283938369897A898B899C8920E030E019
:101E70004FEF53E40E945F15A98DBA8D14966D93B0
:101E80007D938D939C931797C201B101A401930197
:101E90000E94C2096090AD027090AE028090AF02C5
:101EA0009090B002A090B902B090BA02C090BB026C
:101EB000D090BC02E090C502F090C6020091C7022B
:101EC0001091C8028091F5029091F602A091F7025C
:101ED000B091F8028D839E83AF83B8878091010310
:101EE00090910203A0910303B091040389839A8324
:101EF000AB83BC8320900D0330900E0340900F0302
:101F000050901003ADB7BEB718960FB6F894BEBF89
:101F10000FBEADBFC401B30120E030E042E553EC99
:101F20000E94E71688235CF40F2EF0E06F2EF0E09D
:101F30007F2EF8E48F2EF3EC9F2EF02D14C0C401F9
:101F4000B30120E030E042E553E40E94B7161816D2
:101F500054F40F2EF0E06F2EF0E07F2EF2E58F2E7E
:101F6000F3E49F2EF02DC601B50120E030E042E5FC
:101F700053EC0E94E71688235CF40F2EF0E0AF2E9E
:101F8000F0E0BF2EF2E5CF2EF3ECDF2EF02D14C0E3
:101F9000C601B50120E030E042E553E40E94B716E7
:101FA000181654F40F2EF0E0AF2EF0E0BF2EF2E53D
:101FB000CF2EF3E4DF2EF02DC801B70120E030E092
:101FC00042E553EC0E94E71688235CF40F2EF0E004
:101FD000EF2EF0E0FF2EF2E50F2FF3EC1F2FF02D88
:101FE00014C0C801B70120E030E042E553E40E948C
:101FF000B716181654F40F2EF0E0EF2EF0E0FF2E77
:10200000F2E50F2FF3E41F2FF02D6D817E818F817C
:10201000988520E030E042E553EC0E94E7168823E3
:102020002CF480E090E0A8E4B3EC10C06D817E81D8
:102030008F81988520E030E042E553E40E94B71696
:10204000181644F480E090E0A2E5B3E48D839E830B
:10205000AF83B88769817A818B819C8120E030E0F1
:1020600042E553EC0E94E71688232CF480E090E0D0
:10207000A2E5B3EC10C069817A818B819C8120E05C
:1020800030E042E553E40E94B716181644F480E0AD
:1020900090E0A2E5B3E489839A83AB83BC83C20159
:1020A000B10120E030E042E553EC0E94E7168823BE
:1020B0005CF40F2EF0E02F2EF0E03F2EF2E54F2ED5
:1020C000F3EC5F2EF02D14C0C201B10120E030E02E
:1020D00042E553E40E94B716181654F40F2EF0E0B0
:1020E0002F2EF0E03F2EF2E54F2EF3E45F2EF02D81
:1020F000C801B701A80197010E94BD157B018C01A1
:10210000C401B301A40193010E94BD15A801970168
:102110000E9490150E94FD1C9B01AC01C601B501F7
:102120000E94621B69877A878B879C87C601B501ED
:10213000A60195010E94BD15A80197010E94901566
:102140000E94FD1C9B01AC01C401B30190580E9488
:10215000621B5B016C01C201B101A20191010E94ED
:10216000BD157B018C016D817E818F8198859B01DE
:10217000AC010E94BD15A80197010E9490150E9414
:10218000FD1C9B01AC0169817A818B819C810E943D
:10219000621B2B013C0169817A818B819C819B01AF
:1021A000AC010E94BD15A80197010E9490150E94E4
:1021B000FD1C9B01AC016D817E818F8198859058BB
:1021C0000E94621B7B018C0169857A858B859C85C9
:1021D00026EF38E245E652E40E94BD1520E030E0EB
:1021E00044EB52E40E9490159B01AC0160E070E06A
:1021F00084E393E40E945F156D8B7E8B8F8B988FA9
:10220000C601B50123E333E345E652E40E94BD1560
:1022100020E030E044EB52E40E9490159B01AC01B9
:1022200060E070E084E393E40E945F154B015C0181
:10223000C301B20126EF38E245E652E40E94BD1523
:1022400020E030E044EB52E40E9490159B01AC0189
:1022500060E070E084E393E40E945F152B013C0191
:10226000C801B70123E333E345E652E40E94BD15FC
:1022700020E030E044EB52E40E9490159B01AC0159
:1022800060E070E084E393E40E945F157B018C01C1
:10229000C090A902D090AA02C501B40123E333E3A0
:1022A00043EB5FE30E94BD150E9475176C9DC00152
:1022B0006D9D900D7C9D900D1124809340036D8940
:1022C0007E898F89988D23E333E343EB5FE30E949C
:1022D000BD150E9475176C9DC0016D9D900D7C9D74
:1022E000900D112480933F03C090AB02D090AC02BC
:1022F000C801B70123E333E343EB5FE30E94BD155D
:102300000E9475176C9DC0016D9D900D7C9D900D78
:10231000112480934303C301B20123E333E343EB6E
:102320005FE30E94BD150E9475176C9DC0016D9DF5
:10233000900D7C9D900D1124809344036A960FB6F6
:10234000F894DEBF0FBECDBFCF91DF911F910F91EB
:10235000FF90EF90DF90CF90BF90AF909F908F90C5
:102360007F906F905F904F903F902F900895CF9205
:10237000DF92EF92FF920F931F93CF93DF93109210
:10238000460360919D0370E060527040882777FD9E
:102390008095982F0E9417172DEC3CEC4CEA5FE3D8
:1023A0000E94BD157B018C0120E030E040E050E050
:1023B0000E94E71688235CF40F2EF0E0EF2EF0E089
:1023C000FF2EF0E00F2FF0E01F2FF02D14C0C801FA
:1023D000B70120E030E04FE753E40E94B71618162B
:1023E00054F40F2EF0E0EF2EF0E0FF2EFFE70F2F5A
:1023F000F3E41F2FF02DC090A902D090AA02C801CB
:10240000B7010E9475176C9DC0016D9D900D7C9D5C
:10241000900D112480933D0320919E036FED70E099
:10242000621B7109882777FD8095982F0E941717E6
:102430002DEC3CEC4CEA5FE30E94BD157B018C0166
:1024400020E030E040E050E00E94E71688235CF492
:102450000F2EF0E0EF2EF0E0FF2EF0E00F2FF0E077
:102460001F2FF02D14C0C801B70120E030E04FE766
:1024700053E40E94B716181654F40F2EF0E0EF2E16
:10248000F0E0FF2EFFE70F2FF3E41F2FF02DC80120
:10249000B7010E9475176C9DC0016D9D900D7C9DCC
:1024A000900D112480933E036091A30370E060526D
:1024B0007040882777FD8095982F0E9417172DEC84
:1024C0003CEC4CEA5FE30E94BD157B018C0120E0EF
:1024D00030E040E050E00E94E71688235CF40F2EC5
:1024E000F0E0EF2EF0E0FF2EF0E00F2FF0E01F2FD6
:1024F000F02D14C0C801B70120E030E04FE753E4ED
:102500000E94B716181654F40F2EF0E0EF2EF0E0EC
:10251000FF2EFFE70F2FF3E41F2FF02DC091AB022A
:10252000D091AC02C801B7010E9475176C9FC00121
:102530006D9F900D7C9F900D1124809341032091FD
:10254000A4036FED70E0621B7109882777FD809509
:10255000982F0E9417172DEC3CEC4CEA5FE30E9489
:10256000BD157B018C0120E030E040E050E00E948E
:10257000E71688235CF40F2EF0E0EF2EF0E0FF2E3C
:10258000F0E00F2FF0E01F2FF02D14C0C801B701AD
:1025900020E030E04FE753E40E94B716181654F4D9
:1025A0000F2EF0E0EF2EF0E0FF2EFFE70F2FF3E409
:1025B0001F2FF02DC801B7010E9475176C9FC00135
:1025C0006D9F900D7C9F900D11248093420380E0BD
:1025D00090E00E94450E892B41F0C601F4E0880F7F
:1025E000991FFA95E1F78093460380E090E00E94FE
:1025F0005F0E892B51F0E5E0CC0CDD1CEA95E1F78C
:10260000809146038C298093460381E090E00E94EC
:10261000450E892B59F09E0176E0220F331F7A95E3
:10262000E1F780914603822B8093460381E090E09E
:102630000E945F0E892B51F0D695DC2FCC27D795C1
:10264000C795809146038C2B809346038091460367
:102650008460809346030E94750EDF91CF911F9195
:102660000F91FF90EF90DF90CF900895FF920F931E
:102670001F93CF93DF93549A24EF31E040EA5FE059
:1026800004C0A895CA010197F1F7215030408FEF9F
:102690002F3F3807B1F70E94CE00549878940E94DB
:1026A0007E05579A80E090E00E94B90910E41093EB
:1026B00093031092940382E563E973E042E021E022
:1026C0000E9478038093920381E090E00E94B90910
:1026D000109393031092940382E563E973E042E060
:1026E00021E00E9478038093920301E010E0A7E1CB
:1026F000FA2EC0EADFE0A89502C00E94DB008091BC
:10270000530384FFFACF1092AA021092A9021092EA
:10271000AC021092AB0280E090E00E94B90982E521
:1027200066E973E046E00E9442038093920386309C
:1027300020F01093AA020093A90220E030E0F901F2
:10274000E356FC4FD901AA56BC4F8C918F25895E68
:1027500080832F5F3F4F2630310589F7CE010197E7
:10276000F1F7CE010197F1F7CE010197F1F7CE0114
:102770000197F1F71092930382E563E973E041E07A
:1027800021E00E9478038093920381E090E00E9410
:10279000B90982E566E973E046E00E94420380934E
:1027A0009203863020F01093AC020093AB0226E037
:1027B00030E0F901E356FC4FD901A057BC4F8C9192
:1027C0008F25895E80832F5F3F4F2C30310589F73D
:1027D000CE010197F1F7CE010197F1F7CE010197F4
:1027E000F1F7CE010197F1F71092930382E563E9C7
:1027F00073E041E021E00E947803809392030E94FD
:10280000B7118DE393E068E00E94E10102C00E94ED
:10281000DB008091530384FFFACF86E493E061E00C
:102820000E94E10168CFA0E0B0E0E9E1F4E10C949E
:10283000F419DC012B01FA019C91923008F439C1A2
:10284000EB018881823008F433C1943069F484301C
:1028500009F02FC111969C9111978981981709F45D
:1028600028C1A4E0B1E025C1843009F421C182303F
:10287000A9F4923009F01DC19A01AD0188E0EA0186
:102880000990AE01E90109929E018150C1F7E20170
:10289000898111969C918923818308C1923009F422
:1028A00007C112962D903C901397EB018A819B8172
:1028B0001496AD90BD90CD90DC901797EC80FD8084
:1028C0000E811F819101281B390BB90137FF04C00C
:1028D00066277727621B730B603271050CF061C0AD
:1028E000121613066CF537014801062E04C09694A3
:1028F0008794779467940A94D2F721E030E040E01F
:1029000050E004C0220F331F441F551F6A95D2F7B1
:1029100021503040404050402E213F214023512340
:10292000211531054105510521F021E030E040E05D
:1029300050E079018A01E628F728082919293CC0C6
:10294000232BD1F1260E371E35014601062E04C079
:1029500096948794779467940A94D2F721E030E0B4
:1029600040E050E004C0220F331F441F551F6A95FA
:10297000D2F721503040404050402A213B214C2189
:102980005D21211531054105510521F021E030E09F
:1029900040E050E059016A01A628B728C828D92884
:1029A0000BC0821593052CF01C01AA24BB246501E1
:1029B00003C0EE24FF24870111969C91D201119649
:1029C0008C91981709F445C0992339F0A801970113
:1029D0002A193B094C095D0906C0A60195012E196B
:1029E0003F09400B510B57FD08C0118233822282F0
:1029F00024833583468357831DC081E081833382DE
:102A0000228288279927DC01821B930BA40BB50B2C
:102A100084839583A683B7830DC0220F331F441F81
:102A2000551F248335834683578382819381019781
:102A3000938382832481358146815781DA01C901DC
:102A40000197A109B1098F5F9F4FAF4FBF4328F393
:102A50000BC0918333822282EA0CFB1C0C1D1D1DCE
:102A6000E482F5820683178383E0808324813581A5
:102A70004681578157FF1AC0C901AA2797FDA09523
:102A8000BA2F81709070A070B070569547953795A9
:102A90002795822B932BA42BB52B84839583A68318
:102AA000B78382819381019693838283DF0101C082
:102AB000D201CD01CDB7DEB7E2E10C94101AA0E24D
:102AC000B0E0E5E6F5E10C94001A69837A838B8324
:102AD0009C832D833E834F835887E9E0EE2EF12CB3
:102AE000EC0EFD1ECE010196B7010E94ED188E017D
:102AF0000F5E1F4FCE010596B8010E94ED188A891E
:102B000091E089278A8BC701B801AE01475E5F4F0C
:102B10000E9413140E941818A096E6E00C941C1A48
:102B2000A0E2B0E0E6E9F5E10C94001A69837A834B
:102B30008B839C832D833E834F835887F9E0EF2E50
:102B4000F12CEC0EFD1ECE010196B7010E94ED188E
:102B50008E010F5E1F4FCE010596B8010E94ED1841
:102B6000C701B801AE01475E5F4F0E9413140E9477
:102B70001818A096E6E00C941C1AA0E2B0E0E3EC72
:102B8000F5E10C94F41969837A838B839C832D83FC
:102B90003E834F835887CE010196BE01675F7F4F0A
:102BA0000E94ED18CE010596BE016F5E7F4F0E9418
:102BB000ED189985923088F089898230C8F0943078
:102BC00019F4823051F404C0843029F4923081F435
:102BD00084E091E0C6C0923049F420E09A858A8969
:102BE000981321E02A87CE010996BBC0823049F4B0
:102BF00020E09A858A89981321E02A8BCE0141969C
:102C0000B0C02D843E844F8458886D887E888F881C
:102C1000988CEE24FF248701AA24BB24650140E0A0
:102C200050E060E070E0E0E0F0E0C10181709070A1
:102C3000892BE9F0E60CF71C081D191D9A01AB0160
:102C40002A0D3B1D4C1D5D1D80E090E0A0E0B0E032
:102C5000E614F7040805190520F481E090E0A0E0EF
:102C6000B0E0BA01A901480F591F6A1F7B1FAA0CC7
:102C7000BB1CCC1CDD1C97FE08C081E090E0A0E0EE
:102C8000B0E0A82AB92ACA2ADB2A3196E032F10537
:102C900049F0660C771C881C991C5694479437940D
:102CA0002794C3CFFA85EA892B893C898B859C853B
:102CB000280F391F2E5F3F4F17C0CA0181709070D7
:102CC000892B61F016950795F794E79480E090E0E2
:102CD000A0E0B0E8E82AF92A0A2B1B2B7695679525
:102CE000579547952F5F3F4F77FDE7CF0CC0440FB7
:102CF000551F661F771F17FD4160EE0CFF1C001F5C
:102D0000111F21503040403090E0590790E0690792
:102D100090E4790760F32B8F3C8FDB01CA018F773A
:102D20009070A070B07080349105A105B10561F478
:102D300047FD0AC0E114F1040105110529F0405CCA
:102D40005F4F6F4F7F4F40781A8EFE1711F081E072
:102D50008A8F4D8F5E8F6F8F78A383E0898FCE012E
:102D600049960E941818A096E2E10C94101AA8E166
:102D7000B0E0EDEBF6E10C94001A69837A838B8363
:102D80009C832D833E834F83588789E0E82EF12C66
:102D9000EC0EFD1ECE010196B7010E94ED188E01CA
:102DA0000F5E1F4FCE010596B8010E94ED18898570
:102DB000823040F08989823028F0C701B8010E9432
:102DC000651901C08FEF6896E6E00C941C1AA8E123
:102DD000B0E0EDEEF6E10C94001A69837A838B8300
:102DE0009C832D833E834F83588789E0E82EF12C06
:102DF000EC0EFD1ECE010196B7010E94ED188E016A
:102E00000F5E1F4FCE010596B8010E94ED1889850F
:102E1000823040F08989823028F0C701B8010E94D1
:102E2000651901C081E06896E6E00C941C1AA8E0E0
:102E3000B0E0EDE1F7E10C94FD199B01AC0183E0FA
:102E40008983DA01C9018827B7FD83959927AA27C5
:102E5000BB27B82E211531054105510519F482E033
:102E600089833AC08823A9F0203080E0380780E0C9
:102E7000480780E8580729F460E070E080E09FECA4
:102E800030C0EE24FF248701E21AF30A040B150B6D
:102E900002C079018A018EE1C82ED12CDC82CB825E
:102EA000ED82FE820F831887C801B7010E94C917FF
:102EB00001971816190684F4082E04C0EE0CFF1CA6
:102EC000001F111F0A94D2F7ED82FE820F8318872C
:102ED000C81AD90ADC82CB82BA82CE0101960E943E
:102EE00018182896E9E00C94191AACE0B0E0EBE76A
:102EF000F7E10C94041A69837A838B839C83CE0157
:102F00000196BE016B5F7F4F0E94ED188D8182306C
:102F100061F1823050F1843021F48E81882351F1A7
:102F20002EC02F81388537FD20C06E812F313105AD
:102F30001CF06623F9F023C08EE190E0821B930B16
:102F400029853A854B855C8504C05695479537950C
:102F500027958A95D2F76623B1F050954095309524
:102F600021953F4F4F4F5F4F0EC020E030E040E0D3
:102F700050E009C02FEF3FEF4FEF5FE704C020E0C4
:102F800030E040E050E8B901CA012C96E2E00C9430
:102F9000201AEF92FF920F931F937B018C0180E028
:102FA000E81680E0F80681E0080780E0180788F45A
:102FB0008FEFE816F1040105110531F028F088E0E3
:102FC00090E0A0E0B0E017C080E090E0A0E0B0E0CA
:102FD00012C080E0E81680E0F80680E0080781E093
:102FE000180728F088E190E0A0E0B0E004C080E19C
:102FF00090E0A0E0B0E020E230E040E050E0281BAC
:10300000390B4A0B5B0B04C016950795F794E794B0
:103010008A95D2F7F701E45FFE4F8081281B3109C2
:1030200041095109C9011F910F91FF90EF90089537
:10303000DF92EF92FF920F931F93FC01E480F580E3
:1030400006811781D1808081823048F480E090E051
:10305000A0E1B0E0E82AF92A0A2B1B2BA5C0843096
:1030600009F49FC0823021F4EE24FF24870105C0BB
:10307000E114F1040105110519F4E0E0F0E096C057
:10308000628173819FEF623879070CF05BC022E8A0
:103090003FEF261B370B2A3131052CF020E030E0C2
:1030A00040E050E02AC0B801A701022E04C0769586
:1030B0006795579547950A94D2F781E090E0A0E094
:1030C000B0E004C0880F991FAA1FBB1F2A95D2F732
:1030D0000197A109B1098E219F21A023B123009757
:1030E000A105B10521F081E090E0A0E0B0E09A01F7
:1030F000AB01282B392B4A2B5B2BDA01C9018F77C7
:103100009070A070B07080349105A105B10539F4BC
:1031100027FF09C0205C3F4F4F4F5F4F04C0215C29
:103120003F4F4F4F5F4FE0E0F0E02030A0E03A0724
:10313000A0E04A07A0E45A0710F0E1E0F0E07901CE
:103140008A0127C06038710564F5FB01E158FF4F23
:10315000D801C7018F779070A070B070803491054E
:10316000A105B10539F4E7FE0DC080E490E0A0E0D0
:10317000B0E004C08FE390E0A0E0B0E0E80EF91EFC
:103180000A1F1B1F17FF05C016950795F794E794B4
:10319000319687E016950795F794E7948A95D1F7CD
:1031A00005C0EE24FF248701EFEFF0E06E2F679556
:1031B00066276795902F9F77D794DD24D7948E2F1D
:1031C0008695492F462B582F5D29B701CA011F91BB
:1031D0000F91FF90EF90DF900895FC01DB0140819B
:1031E00051812281622F6F7770E0221F2227221FD8
:1031F0009381892F880F822B282F30E0991F9927E0
:10320000991F11969C93119721153105A9F5411528
:1032100051056105710511F482E037C082E89FEF26
:1032200013969C938E9312979A01AB0167E0220F3D
:10323000331F441F551F6A95D1F783E08C930DC04F
:10324000220F331F441F551F12968D919C91139787
:10325000019713969C938E931297203080E0380745
:1032600080E0480780E4580758F314962D933D9367
:103270004D935C93179708952F3F310579F44115CD
:1032800051056105710519F484E08C93089564FF7C
:1032900003C081E08C9312C01C9210C02F573040A5
:1032A00013963C932E93129783E08C9387E0440F00
:1032B000551F661F771F8A95D1F7706414964D933A
:1032C0005D936D937C93179708951F93DC01FB0129
:1032D0009C91923008F447C08081823008F443C04A
:1032E000943051F411961C91843099F58181682FA6
:1032F00070E0611B71093FC0843021F0923031F4DD
:103300008230B9F18181882389F12DC011961C91F9
:1033100011978230F1F081811817D9F412962D910E
:103320003C911397828193818217930794F0281719
:103330003907BCF014968D919D910D90BC91A02DF4
:103340002481358146815781281739074A075B0751
:1033500018F4112341F00AC082179307A407B50798
:1033600040F4112319F061E070E005C06FEF7FEFCA
:1033700002C060E070E0CB011F910895AA1BBB1B47
:1033800051E107C0AA1FBB1FA617B70710F0A61B65
:10339000B70B881F991F5A95A9F780959095BC0186
:1033A000CD010895A1E21A2EAA1BBB1BFD010DC081
:1033B000AA1FBB1FEE1FFF1FA217B307E407F507E5
:1033C00020F0A21BB30BE40BF50B661F771F881FC1
:1033D000991F1A9469F760957095809590959B0157
:1033E000AC01BD01CF0108952F923F924F925F92A1
:1033F0006F927F928F929F92AF92BF92CF92DF9205
:10340000EF92FF920F931F93CF93DF93CDB7DEB769
:10341000CA1BDB0B0FB6F894DEBF0FBECDBF0994FD
:103420002A88398848885F846E847D848C849B8454
:10343000AA84B984C884DF80EE80FD800C811B8162
:10344000AA81B981CE0FD11D0FB6F894DEBF0FBE91
:10345000CDBFED0108950F931F93CF93DF93689F26
:103460008001699F100D789F100D1124C8010E94E2
:10347000471AEC01009729F060E070E0A8010E9473
:103480004C1BCE01DF91CF911F910F910895CF93E7
:10349000DF93BC018230910510F462E070E0A091EE
:1034A000AB03B091AC03ED01E0E0F0E040E050E0B0
:1034B00021C0888199818617970769F48A819B8149
:1034C000309719F09383828304C09093AC03809368
:1034D000AB03FE0134C06817790738F44115510574
:1034E00019F08417950708F4AC01FE018A819B81CD
:1034F0009C01E9012097E9F641155105A9F1CA019E
:10350000861B970B049708F4BA01E0E0F0E02AC0AC
:103510008D919C91119784179507F9F4641775079D
:1035200081F412968D919C911397309719F09383A3
:10353000828304C09093AC038093AB03FD01329669
:103540004FC0CA01861B970BFD01E80FF91F61935D
:10355000719302978D939C9343C0FD018281938167
:103560009C01D9011097A1F68091A9039091AA031B
:10357000892B41F480910E0290910F029093AA033F
:103580008093A903409110025091110241155105F9
:1035900041F44DB75EB780910C0290910D02481B2B
:1035A000590B2091A9033091AA0324173507B0F4D1
:1035B000CA01821B930B8617970780F0AB014E5F01
:1035C0005F4F8417950750F0420F531F5093AA0383
:1035D0004093A903F9016193719302C0E0E0F0E028
:1035E000CF01DF91CF910895CF93DF93009709F436
:1035F00050C0EC0122971B821A82A091AB03B091BC
:10360000AC03109709F140E050E0AC17BD0708F19A
:10361000BB83AA83FE0121913191E20FF31FAE1704
:10362000BF0779F48D919C911197280F391F2E5F58
:103630003F4F3983288312968D919C9113979B83DA
:103640008A834115510571F4D093AC03C093AB0349
:1036500020C012968D919C911397AD01009711F0A7
:10366000DC01D3CFFA01D383C28321913191E20FE0
:10367000F31FCE17DF0769F488819981280F391F5E
:103680002E5F3F4FFA01318320838A819B81938390
:103690008283DF91CF910895DC0101C06D93415089
:1036A0005040E0F70895F5D058F080E891E009F433
:1036B0009EEFF6D028F040E851E059F45EEF09C0E3
:1036C000C0C028C1E92FE07803D168F3092E052A8C
:1036D000C1F3261737074807590738F00E2E07F8A9
:1036E000E02569F0E025E0640AC0EF6307F8009484
:1036F00007FADB01B9019D01DC01CA01AD01EF93BD
:1037000041D0D5D00AD05F91552331F02BED3FE069
:1037100049E450FD49EC04CA0895DF93DD27B92F31
:10372000BF7740E85FE31616170648075B0710F4FB
:10373000D92FF7D09F938F937F936F939CD1E8E617
:10374000F0E082D0B4D02F913F914F915F91FAD0A9
:10375000DD2349F09058A2EA2AED3FE049EC5FE30F
:10376000D0785D2798D1DF91A2C09AD040F091D057
:1037700030F021F45F3F19F05EC05111CCC061C040
:10378000A7D098F39923C9F35523B1F3951B550B93
:10379000BB27AA2762177307840738F09F5F5F4F24
:1037A000220F331F441FAA1FA9F333D00E2E3AF065
:1037B000E0E830D091505040E695001CCAF729D07F
:1037C000FE2F27D0660F771F881FBB1F26173707CE
:1037D0004807AB07B0E809F0BB0B802DBF01FF27FE
:1037E00093585F4F2AF09E3F510568F024C093C064
:1037F0005F3FECF3983EDCF3869577956795B79538
:10380000F7959F5FC9F7880F911D9695879597F952
:103810000895E1E0660F771F881FBB1F62177307CB
:103820008407BA0720F0621B730B840BBA0BEE1FE0
:1038300088F7E095089597F99F6780E870E060E069
:1038400008959FEF80EC0895DF93CF931F930F931C
:10385000FF92EF92DF927B018C01689405C0DA2E13
:10386000EF0170D0FE01E894A59125913591459125
:103870005591AEF3EF010FD1FE019701A801DA9443
:1038800079F7DF90EF90FF900F911F91CF91DF912B
:10389000089500240A9416161706180609060895B6
:1038A00000240A9412161306140605060895092E1C
:1038B0000394000C11F4882352F0BB0F40F4BF2B8B
:1038C00011F460FF04C06F5F7F4F8F4F9F4F0895CB
:1038D00057FD9058440F551F59F05F3F71F04795C1
:1038E000880F97FB991F61F09F3F79F087950895A6
:1038F000121613061406551FF2CF4695F1DF08C0C5
:10390000161617061806991FF1CF869571056105E1
:1039100008940895E894BB2766277727CB0197F989
:1039200008959B01AC0160E070E080E89FE306C170
:10393000B0DF28F0B5DF18F0952309F07CCF81CFF8
:103940001124E9CFC5DFA0F3959FD1F3950F50E087
:10395000551F629FF001729FBB27F00DB11D639F41
:10396000AA27F00DB11DAA1F649F6627B00DA11DE7
:10397000661F829F2227B00DA11D621F739FB00D8D
:10398000A11D621F839FA00D611D221F749F3327FD
:10399000A00D611D231F849F600D211D822F762F96
:1039A0006A2F11249F5750408AF0E1F088234AF093
:1039B000EE0FFF1FBB1F661F771F881F91505040DF
:1039C000A9F79E3F510570F036CFA5CF5F3FECF3CE
:1039D000983EDCF3869577956795B795F795E795CB
:1039E0009F5FC1F7FE2B880F911D9695879597F9DC
:1039F000089511F40EF425CFA3C072DFD0F39923FC
:103A0000D9F3CEF39F57550B87FFA8D00024A0E62B
:103A100040EA900180585695979528F4805C660F8F
:103A2000771F881F20F026173707480730F4621BDE
:103A3000730B840B202931294A2BA69517940794E0
:103A4000202531254A2758F7660F771F881F20F059
:103A500026173707480730F4620B730B840B200DD1
:103A6000311D411DA09581F7B901842F9158880F10
:103A70009695879508959B01AC017FC80ADF30F0C9
:103A80000FDF20F031F49F3F11F41EF4DACE0EF474
:103A9000E095E7FBD0CEE92F1BDF80F3BA17620772
:103AA00073078407950718F071F49EF533CF0EF471
:103AB000E0950B2EBA2FA02D0B01B90190010C013E
:103AC000CA01A0011124FF27591B99F0593F50F456
:103AD000503E68F11A16F040A22F232F342F4427AE
:103AE000585FF3CF469537952795A795F0405395A6
:103AF000C9F77EF41F16BA0B620B730B840BBAF076
:103B00009150A1F0FF0FBB1F661F771F881FC2F7E0
:103B10000EC0BA0F621F731F841F48F487957795F4
:103B20006795B795F7959E3F08F0B3CF9395880FAB
:103B300008F09927EE0F97958795089521DEB7CE67
:103B40009F3F31F0915020F4879577956795B79511
:103B5000880F911D9695879597F90895915050403B
:0E3B6000660F771F881FD2F70895F894FFCFE5
:103B6E005AFF737A000000000000000000010202FC
:103B7E0003030303040404040404040405050505F7
:103B8E0005050505050505050505050506060606D3
:103B9E0006060606060606060606060606060606B7
:103BAE0006060606060606060606060607070707A3
:103BBE000707070707070707070707070707070787
:103BCE000707070707070707070707070707070777
:103BDE000707070707070707070707070707070767
:103BEE000707070707070707070707070808080853
:103BFE000808080808080808080808080808080837
:103C0E000808080808080808080808080808080826
:103C1E000808080808080808080808080808080816
:103C2E000808080808080808080808080808080806
:103C3E0008080808080808080808080808080808F6
:103C4E0008080808080808080808080808080808E6
:103C5E0008080808080808080808080808080808D6
:103C6E000808080808080808080808082000AD0316
:023C7E00000044
:00000001FF
